:020000040800F2
:1000000000000220A9200008291B00082F1B00085F
:10001000351B00083B1B0008411B000800000000C6
:10002000000000000000000000000000471B000866
:10003000551B000800000000631B0008711B00082E
:10004000F9200008F9200008F9200008F92000082C
:10005000F9200008F9200008F9200008F92000081C
:10006000F9200008F9200008F9200008F92000080C
:10007000F9200008F9200008F9200008F9200008FC
:10008000F9200008F92000087D1B0008F92000086D
:10009000F9200008F9200008F9200008F9200008DC
:1000A000F9200008911B0008F9200008F920000839
:1000B000F9200008F9200008F9200008F9200008BC
:1000C000F9200008F9200008F9200008F9200008AC
:1000D000F9200008F9200008F9200008F92000089C
:1000E000F9200008F9200008F9200008F92000088C
:1000F000A51B0008B91B0008F9200008F92000081A
:10010000F9200008F9200008F9200008F92000086B
:10011000F9200008F9200008F9200008F92000085B
:10012000CD1B0008F9200008F9200008F92000087C
:10013000F9200008F9200008F9200008F92000083B
:10014000F9200008F9200008F9200008F92000082B
:10015000F9200008F9200008F9200008F92000081B
:10016000F9200008F9200008F9200008F92000080B
:10017000F9200008F9200008F9200008000000001C
:08018000F9200008F920000835
:1001880010B5054C237833B9044B13B10448AFF3C9
:1001980000800123237010BD0C0000200000000027
:1001A8002453000808B5034B1BB103490348AFF3B8
:1001B800008008BD00000000100000202453000843
:1001C80053B94AB9002908BF00281CBF4FF0FF31B6
:1001D8004FF0FF3000F06EB9ADF1080C6DE904CEB8
:1001E80000F006F8DDF804E0DDE9022304B070470A
:1001F8002DE9F047089D04468C46002B40F083808B
:100208008A42174647D9B2FA82F242B1C2F12000B7
:1002180024FA00F09140974040EA010C94404FEADC
:100228001748230CBCFBF8F61FFA87FE08FB16C11B
:1002380043EA014306FB0EF1994209D9FB1806F17E
:10024800FF3080F01981994240F21681023E3B440A
:100258005B1AA4B2B3FBF8F008FB103344EA03447A
:1002680000FB0EFEA64509D93C1900F1FF3380F0CA
:100278000581A64540F2028102383C4440EA064026
:10028800A4EB0E0400261DB1D4400023C5E90043A9
:100298003146BDE8F08702B9FFDEB2FA82F2002AE1
:1002A80050D1CB1B4FEA174E1FFA87F80126B3FB34
:1002B800FEFC210C0EFB1C3341EA034108FB0CF346
:1002C8008B4207D979180CF1FF3002D28B4200F229
:1002D800E9808446C91AA3B2B1FBFEF00EFB1011E7
:1002E80043EA014408FB00F8A04507D93C1900F18E
:1002F800FF3302D2A04500F2D9801846A4EB0804C7
:1003080040EA0C40BFE78B4209D9002D00F0B180CC
:100318000026C5E9000130463146BDE8F087B3FA4A
:1003280083F6002E4AD18B4202D3824200F2B88073
:10033800841A61EB030101208C46002DA8D0C5E981
:10034800004CA5E7C2F1200320FA03F6974001FA12
:1003580002F04FEA174ED9403043030CB1FBFEF6CA
:100368001FFA87F80EFB161143EA014306FB08F152
:10037800994204FA02F409D9FB1806F1FF3C80F00F
:100388008D80994240F28A80023E3B445B1A81B2DA
:10039800B3FBFEF00EFB103341EA034100FB08F308
:1003A8008B4207D9791800F1FF3C73D28B4271D97F
:1003B80002383944CB1A40EA064678E7C6F1200CE1
:1003C80003FA06F422FA0CF31C4320FA0CF701FA9C
:1003D80006F34FEA144E21FA0CF11F433B0CB1FB14
:1003E800FEF91FFA84F80EFB191143EA014109FBD3
:1003F80008FA8A4502FA06F200FA06F308D96118E3
:1004080009F1FF3048D28A4546D9A9F102092144A9
:10041800A1EB0A01BFB2B1FBFEF00EFB101147EAD7
:10042800014700FB08F8B84507D9E71900F1FF3183
:100438002ED2B8452CD90238274440EA0940A7EB08
:100448000807A0FB02894F45C64649461AD317D06C
:100458005DB1B3EB0E0267EB010707FA0CFCF24043
:100468004CEA0202F740C5E9002700263146BDE8FC
:10047800F0872E4628460BE70646E9E61846FDE6CD
:100488004345E5D2B8EB020E69EB04010138DFE71A
:100498000846D2E760468DE78146B9E7664675E7C4
:1004A80030464AE7ACF1020C394413E702383C44C1
:1004B80024E700BF704700BF80B485B000AF034693
:1004C8003A60FB800B46BB80FB88012B09D8FA8871
:1004D8001B491346DB009B1A9B000B441B78002B1F
:1004E80001D1132325E0FA881346DB009B1A9B00F1
:1004F800134A1344FB60BB88022B11D0022B15DC76
:10050800002B07D0012B11D1FB685B891A463B6889
:100518001A600DE0FB689B891A463B681A6007E081
:10052800FB681B8A1A463B681A6001E0162300E044
:10053800002318461437BD465DF8047B704700BF9A
:100548002800002080B586B000AF0346B9607A6005
:10055800FB73FB7B012B04D9184800F0B1FD132372
:1005680028E0FA7B1346DB009B1A9B00144A1344CD
:100578007B617B68002B06D07B697A689A61BB68CF
:10058800002B0ADC04E00F4800F09AFD0E2311E06E
:10059800BB6847F6FE72934208DCBB689AB27B6977
:1005A800DA817B6901221A70002303E0064800F013
:1005B80087FD162318461837BD4680BD3C530008F2
:1005C80028000020605300089453000880B584B0C8
:1005D80000AF0023FB7362E0FA7B1346DB009B1A33
:1005E8009B00334A13447B607B681B78012B53D1F3
:1005F8007B681A897B68DB899A4237D37B68DB89F9
:10060800002B05D17B680122DA812A4800F058FDC9
:100618007B685B687A68D289B3FBF2F39AB27B682D
:100628005A817B6800221A817B6800225A60002365
:10063800BB607B689B69002B07D07B689B697A68E5
:10064800528910469847B86002E01B4800F038FD10
:100658007B689B7C002B04D1BB689AB27B681A82AA
:100668001AE07B689A8A7B681A8215E07B681B8986
:1006780001339AB27B681A817B685A68FB7B0F4901
:1006880051F823301A447B685A60FB7B0B4A52F8B6
:1006980023309AB27B689A81FB7B0133FB73FB7B27
:1006A800012B99D900BF00BF1037BD4680BD00BFE0
:1006B80028000020C4530008E05300085C01002013
:1006C80084B080B500AF07F1080C8CE80F00022257
:1006D800054907F1080001F003FF03461846BD4627
:1006E800BDE8804004B070475C01002080B483B04E
:1006F80000AF78607B684FF4A57202FB03F35B08D8
:10070800044AA2FB03239B0A18460C37BD465DF832
:10071800047B70470102108080B584B000AF0346A7
:10072800B9607A60FB73FB7B012B04D91C4800F08D
:10073800C7FC132330E0BB68002B07D0BB68102B25
:1007480004D0184800F0BCFC132325E07B68002B7C
:1007580004D1154800F0B4FC0E231DE0FA7B1349C0
:1007680013469B0013449B000B4401221A70FA7B2A
:100778000E4913469B0013449B000B440C33BA6884
:100788001A60FA7B094913469B0013449B000B44EB
:1007980004337A681A60002318461037BD4680BDB6
:1007A8000C540008305400085C5400086000002015
:1007B80080B582B000AF03463A60FB800B46BB8031
:1007C800FB88012B09D8FA88154913469B00134466
:1007D8009B000B441B78002B01D113231CE0BB8822
:1007E800002B02D0022B02D015E00D2314E03B6849
:1007F800002B0EDB3B68B3F5004F0ADAFB88DBB24F
:100808003A6812B21146184600F00CF800BF0023EF
:1008180002E04C2300E0162318460837BD4680BD89
:100828006000002080B584B000AF03460A46FB7123
:100838001346BB80FA7913469B0013449B001D4A5C
:100848001344FB60B7F90430002B0BD1FB7900216E
:10085800184600F035F8FB6800225A82FB6800222F
:100868001A8122E0FB790121184600F029F8FB687B
:100878005B68002B16D0FB685B68B7F9042010464C
:100888009847B860BA88FB685A82BB689AB2FB6816
:100898001A81FB68D968BB689BB20022064802F03F
:1008A800B3FB02E0054800F00BFC00BF1037BD4663
:1008B80080BD00BF60000020700100209054000837
:1008C80080B584B000AF03460A46FB711346BB717E
:1008D800FA7913469B0013449B00164A1344FB60A5
:1008E800BB79012B0DD1FB681B7C002B1CD1FB684D
:1008F800DB681946104802F018FBFB6801221A74DD
:1009080012E0BB79002B0DD1FB681B7C012B0BD1AE
:10091800FB68DB681946084802F059FBFB680022AF
:100928001A7401E0132300E0002318461037BD466F
:1009380080BD00BF600000207001002080B483B03B
:1009480000AF78607A681346DB029B1A5B001A4690
:10095800044BA3FB0223DB0918460C37BD465DF8A0
:10096800047B704735064C6384B0B0B584B000AFE3
:10097800044607F1240080E80E002346FB71FB794A
:10098800022B04D9424800F09BFB132379E0FA7943
:1009980013465B0013441B013E4A1344FB60FB688B
:1009A80003F1100407F124050FCD0FC42B68236051
:1009B800FB689B7F002B06D1FB6801221A73FB683A
:1009C80000225A730FE0FB689B7F012B06D1FB685E
:1009D80000221A73FB6801225A7304E02E4800F0C3
:1009E8006FFB16234DE0FB68DB7F002B08D0FB680C
:1009F800DB7F012B04D0294800F062FB162340E07E
:100A0800FB681B6A002B02D1FB68254A1A62FB6847
:100A18009B8B002B03D0FB68012283F82C20FB68FA
:100A28005B8B002B03D0FB68012283F82A20FB682C
:100A3800012283F82820FB681B6AFA791046984738
:100A480003461A46FB685A72FB685B7A1946F868CF
:100A580000F012F903461A46FB685A70FB685A7A86
:100A6800FB685B7B9A4204D1FB68012283F826204D
:100A780003E0FB68012283F82420FB6801221A7036
:100A8800002318461037BD46BDE8B04004B0704793
:100A9800A455000888000020D0550008F455000827
:100AA800190C000880B483B000AF0346FB71FB79D2
:100AB800022B09D8FA790D4913465B0013441B0130
:100AC8000B441B78002B01D1132308E0FA7907495E
:100AD80013465B0013441B010B4401331B78184673
:100AE8000C37BD465DF8047B704700BF88000020C6
:100AF80090B583B000AF0023FB7124E0FA79164962
:100B080013465B0013441B010B441B78012B17D1C0
:100B1800FA7913465B0013441B010F4A9C18FA79B3
:100B28000D4913465B0013441B010B4420331B681B
:100B3800FA791046984703461946204600F0EAF825
:100B4800FB790133FB71FB79022BD7D900BF00BFBA
:100B58000C37BD4690BD00BF8800002080B483B02C
:100B680000AF03460A46FB711346BB71FB79022BA3
:100B780009D8FA790E4913465B0013441B010B444C
:100B88001B78002B01D113230BE0FA79B9790848B7
:100B980013465B001344DB000B4410335B00034433
:100BA8005B7918460C37BD465DF8047B704700BF7B
:100BB8008800002080B483B000AF03460A46FB716A
:100BC8001346BB71FB79022B09D8FA790F491346F2
:100BD8005B0013441B010B441B78002B01D113232A
:100BE8000DE0FA79B979094813465B001344DB0034
:100BF8000B4410335B00034400225A71002318464B
:100C08000C37BD465DF8047B704700BF88000020A4
:100C180080B584B000AF0346FB71FB79022B04D981
:100C2800134800F04DFA00231EE0FA7913465B00E2
:100C380013441B010F4A1344FB60FB689B78012B8C
:100C480009D1FB68DB78012B02D1FB681B7B0BE029
:100C5800FB685B7B08E0FB685A69FB681B8A1946DE
:100C6800104602F051FF034618461037BD4680BDB6
:100C7800185600088800002080B582B000AF786060
:100C88000B46FB70FB78002B07D17B685B7B002B46
:100C980001D1002310E001230EE0FB78012B07D1DE
:100CA8007B681B7B012B01D1012305E0002303E0B6
:100CB800034800F005FA3D2318460837BD4680BDB5
:100CC8004856000880B483B000AF78600B46FB70CC
:100CD8001346BB70FB785B007A6813441B78012BC2
:100CE80009D1BB78012B06D1FB785B007A681344E5
:100CF80001225A7008E0BB78002B05D1FB785B0015
:100D08007A68134400225A7000BF0C37BD465DF85C
:100D1800047B704770B5037B8B424FF001030CBF17
:100D280080F8243080F826300379012B04460D46DC
:100D380000F1240647D0237A032B00F2A580DFE8D0
:100D480003F03A290C02237BAB425CD0637BAB42B5
:100D580069D000232372638170BD627A637B9A42F3
:100D68004FF0010247D000213046FFF7ABFF0023C8
:100D780084F82430657229462046FFF77DFFE37F1B
:100D88006070ABB12279012A5BD003230022237261
:100D9800628170BD63894FF6FF72934228D0228B1F
:100DA80001339BB29A42638122D9637AAB42D3D191
:100DB8000023237270BD637AAB42CDD00122002399
:100DC8002272638170BDC3884FF6FF72934218BFC9
:100DD8000133828B18BF9BB29A42C380ABD20122E7
:100DE80002213046FFF76EFF00232371E380A2E75C
:100DF80002232372D9E711463046FFF763FF002329
:100E080084F82630B6E763894FF6FF72934218BF1D
:100E18000133628B18BF9BB29A4263819CD2012333
:100E280084F82B3070BD6389002B92D094F82B3056
:100E3800C3B994F82C2023726381EAB1012323718A
:100E480070BD237BAB42A0D1E188A38B99429CD291
:100E580030460421FFF736FF002323712372638194
:100E6800E38070BD0025304625712A460321FFF72F
:100E780029FF2572658170BD227130460122BDE8C7
:100E880070400221FFF71EBF00232372BDE87040A7
:100E9800014800F015B900BF6856000890B587B042
:100EA80000AF0446384680E80E002346FB73FB7B00
:100EB800022B04D91C4800F003F913232FE03B7AD6
:100EC800002B07D03B7A012B04D0184800F0F8F823
:100ED800132324E03B88002B04D03B881B0C1B0405
:100EE800002B04D0124800F0EBF8132317E0FB7B2B
:100EF8001B01104A13447B617B6901221A703A88EE
:100F08007B699A807A687B699A603A7A7B691A73F6
:100F18003A7AFB7B1146184600F03AF80023184647
:100F28001C37BD4690BD00BFBC540008E4540008FF
:100F38000C5500081801002080B582B000AF0346A8
:100F4800FB71FB79022B06D8FB79104A1B0113446D
:100F58001B78002B01D1132313E0FB790B4A1B01EB
:100F6800134401331B78002B05D1FB790121184666
:100F780000F038F804E0FB790021184600F032F858
:100F8800002318460837BD4680BD00BF1801002061
:100F980080B582B000AF03460A46FB711346BB71A9
:100FA800FB79022B06D8FB790D4A1B0113441B78E9
:100FB800002B01D113230EE0BB79002B04D0BB79A1
:100FC800012B01D0162306E0BA79FB7911461846A1
:100FD80000F008F8002318460837BD4680BD00BF5A
:100FE8001801002080B584B000AF03460A46FB71A3
:100FF8001346BB71FB79022B06D8FB790F4A1B01FC
:1010080013441B78002B04D10D4800F059F8132322
:1010180010E0FB791B01094A1344FB60FB68BA79AD
:101028005A70FB689868FB689B88BA79194602F081
:1010380083FD002318461037BD4680BD18010020E7
:101048003055000880B483B000AF78604FF060433B
:10105800D3F8803E03F00103002B13D04FF0604318
:10106800D3F8003E03F00103002B0BD000E000BFD3
:101078004FF060431B68002BF9D04FF060437A684B
:10108800D2B21A707B6818460C37BD465DF8047BEF
:101098007047000080B483B000AF0346FB71FB7952
:1010A800022B01D9132303E0044AFB7913700023B0
:1010B80018460C37BD465DF8047B70474801002090
:1010C80080B582B000AF78600D4B1B78002B13D031
:1010D8000B4B1B78012B10D106E07B685A1C7A60F9
:1010E8001B781846FFF7AEFF7B681B78002BF4D1FE
:1010F8000A20FFF7A7FF00E000BF0837BD4680BD04
:101108004801002080B500AF0148FFF7D9FFFEE78E
:101118006055000880B500AF00F0ECFF00F02CF837
:1011280000F066FA00F044FA00F092F800F0FEF8D9
:1011380000F030F900F076F900F0CEF900F0F0F99F
:1011480000F012FA00F054F900F0AAFD064803F086
:1011580027FB064803F024FB054803F021FB05485C
:1011680002F08AFEFBE700BF20020020BC0200203C
:10117800640300206802002080B594B000AF07F136
:10118800200330220021184604F0C0F807F10C03B0
:1011980000221A605A609A60DA601A610023BB6004
:1011A800294B1B6C284A43F080531364264B1B6C55
:1011B80003F08053BB60BB6800237B60234B1B6834
:1011C800224A43F480431360204B1B6803F4804396
:1011D8007B607B680A233B620123FB6210233B632D
:1011E80001237B630223BB630023FB6308233B6467
:1011F800A8237B640223BB640423FB6407F1200358
:10120800184602F049FE0346002B01D000F08EFA82
:101218000F23FB6002233B6100237B614FF4A05343
:10122800BB614FF48053FB6107F10C03052118469D
:1012380003F0AAF80346002B01D000F077FA00BFAC
:101248005037BD4680BD00BF0038024000700040E6
:1012580080B584B000AF3B4600221A605A609A609D
:10126800DA602F4B2F4A1A602D4B4FF440325A60E8
:101278002B4B00229A602A4B01221A61284B01222B
:101288001A76274B002283F82020254B0022DA62A9
:10129800234B254A9A62224B0022DA60204B032214
:1012A800DA611F4B012283F830201D4B00225A615E
:1012B8001B4800F091FF0346002B01D000F036FADE
:1012C80001233B6001237B600723BB603B46194633
:1012D800134801F033FA0346002B01D000F026FA38
:1012E80002233B6002237B603B4619460C4801F011
:1012F80025FA0346002B01D000F018FA10233B60B2
:1013080003237B603B461946054801F017FA03465C
:10131800002B01D000F00AFA00BF1037BD4680BD8F
:1013280074020020002001400100000F80B582B047
:1013380000AF3B4600221A605A60144B144A1A60E8
:10134800124801F0D0FD0346002B01D000F0EEF961
:1013580000233B6000237B603B46002219460B4874
:1013680001F077FE0346002B01D000F0DFF93B4681
:1013780010221946054801F06CFE0346002B01D0E7
:1013880000F0D4F900BF0837BD4680BD70010020C9
:101398000074004080B500AF124B134A1A60114B1D
:1013A800124A5A600F4B00229A600E4B0022DA60F4
:1013B8000C4B4FF480421A610A4B00225A61094BC8
:1013C80000229A61074B0022DA61064B00221A625A
:1013D800044802F0CBFB0346002B01D000F0A6F92D
:1013E80000BF80BDCC01002000540040A086010051
:1013F80080B500AF094B0A4A1A60084B00225A60B0
:10140800064B40F6FF729A60044802F0F3FC03466C
:10141800002B01D000F08AF900BF80BD68020020CF
:101428000030004080B58AB000AF07F120030022E9
:101438001A605A603B1D00221A605A609A60DA608E
:101448001A615A619A61224B224A1A60204B032280
:101458005A601F4B00229A601D4B4FF48072DA606D
:101468001B4B00221A611A4B00229A61184803F09C
:1014780007FA0346002B01D000F058F900233B621D
:1014880000237B6207F120031946114803F08AFE06
:101498000346002B01D000F049F960237B6000234C
:1014A800BB600023FB6000237B613B1D00221946C3
:1014B800074803F03DFB0346002B01D000F036F946
:1014C800034800F0F3FA00BF2837BD4680BD00BFCF
:1014D800840100200008004080B500AF0E4B0F4A81
:1014E8001A600D4B02225A600B4B00229A600A4B7D
:1014F8004DF6BF22DA60084B00221A61064B002223
:101508009A61054803F0FCF80346002B01D000F06F
:101518000DF900BF80BD00BF20020020004401403B
:1015280080B500AF0E4B0F4A1A600D4B4FF4246282
:101538005A600B4B00229A60094B4FF6FF12DA6093
:10154800074B00221A61064B00229A61044803F0F7
:10155800D7F80346002B01D000F0E8F800BF80BDA3
:10156800BC020020001C004080B500AF0E4B0F4AA3
:101578001A600D4B4F225A600B4B00229A600A4B9F
:101588004FF21762DA60084B00221A61064B0022FC
:101598009A61054803F0B4F80346002B01D000F027
:1015A800C5F800BF80BD00BF6403002000200040D4
:1015B80080B582B000AF00237B600C4B1B6B0B4ADD
:1015C80043F480031363094B1B6B03F480037B60B4
:1015D8007B6800220021382001F04BFC382001F004
:1015E80064FC00BF0837BD4680BD00BF003802401C
:1015F80080B58AB000AF07F1140300221A605A6060
:101608009A60DA601A6100233B61434B1B6B424AC4
:1016180043F001031363404B1B6B03F001033B6171
:101628003B690023FB603C4B1B6B3B4A43F00203C6
:101638001363394B1B6B03F00203FB60FB68002349
:10164800BB60354B1B6B344A43F010031363324BBA
:101658001B6B03F01003BB60BB6800237B602E4B41
:101668001B6B2D4A43F0080313632B4B1B6B03F0D2
:1016780008037B607B6800220321284802F05CFA9B
:1016880000224FF46041264802F056FA01237B619C
:101698000023BB610223FB6107F1140319462148AB
:1016A80002F096F803237B610123BB610023FB61F1
:1016B80000233B6207F114031946184802F088F822
:1016C80080237B610023BB610223FB6107F11403C4
:1016D8001946154802F07CF84FF480737B610023AB
:1016E800BB610123FB6107F1140319460E4802F0A0
:1016F8006FF84FF460437B610123BB610023FB61FA
:1017080000233B6207F114031946054802F060F80C
:1017180000BF2837BD4680BD0038024000040240A3
:10172800000C0240000002400010024080B400AFEC
:1017380072B600BFFEE7000080B483B000AF00239C
:101748007B60104B5B6C0F4A43F4804353640D4B32
:101758005B6C03F480437B607B6800233B60094B30
:101768001B6C084A43F080531364064B1B6C03F050
:1017780080533B603B6800BF0C37BD465DF8047B77
:10178800704700BF0038024080B58AB000AF78606B
:1017980007F1140300221A605A609A60DA601A612D
:1017A8007B681B68334A93425FD100233B61324B0D
:1017B8005B6C314A43F4807353642F4B5B6C03F4C6
:1017C80080733B613B690023FB602B4B1B6B2A4AF0
:1017D80043F001031363284B1B6B03F00103FB6009
:1017E800FB6806237B610323BB610023FB6107F1D0
:1017F80014031946214801F0EBFF214B214A1A60D6
:101808001F4B00225A601E4B00229A601C4B00227C
:10181800DA601B4B4FF480621A61194B4FF4805207
:101828005A61174B4FF400529A61154B4FF480726E
:10183800DA61134B00221A62114B00225A621048D7
:1018480001F056FC0346002B01D0FFF76FFF7B68C1
:101858000B4A9A630A4A7B6893630022002112208C
:1018680001F007FB122001F020FB00BF2837BD461E
:1018780080BD00BF00200140003802400000024047
:10188800040300201064024080B58AB000AF78607D
:1018980007F1140300221A605A609A60DA601A612C
:1018A8007B681B68174A934227D100233B61164B7C
:1018B8001B6C154A43F000531364134B1B6C03F065
:1018C80000533B613B690023FB600F4B1B6B0E4AC7
:1018D80043F0010313630C4B1B6B03F00103FB6024
:1018E800FB6830237B610323BB610023FB6107F1A5
:1018F80014031946054801F06BFF00BF2837BD46A1
:1019080080BD00BF00740040003802400000024063
:1019180080B58AB000AF786007F1140300221A601E
:101928005A609A60DA601A617B681B68194A9342A8
:101938002BD100233B61184B1B6B174A43F0020362
:101948001363154B1B6B03F002033B613B69C02318
:101958007B611223BB610023FB6103233B620423E9
:101968007B6207F1140319460C4801F031FF00238C
:10197800FB60094B1B6C084A43F400131364064BC5
:101988001B6C03F40013FB60FB6800BF2837BD46DF
:1019980080BD00BF005400400038024000040240EF
:1019A80080B485B000AF78607B681B680B4A9342AF
:1019B8000DD10023FB600A4B1B6C094A43F004035A
:1019C8001364074B1B6C03F00403FB60FB6800BF48
:1019D8001437BD465DF8047B704700BF000800401F
:1019E8000038024080B586B000AF78607B681B681D
:1019F8002A4A934216D100237B61294B5B6C284A03
:101A080043F400335364264B5B6C03F400337B616F
:101A18007B6900220021192001F02BFA192001F01E
:101A280044FA36E07B681B681E4A934216D10023AD
:101A38003B611B4B1B6C1A4A43F080031364184B21
:101A48001B6C03F080033B613B69002200212C20C2
:101A580001F00FFA2C2001F028FA1AE07B681B68C5
:101A6800114A934215D10023FB600D4B1B6C0C4AA5
:101A780043F4807313640A4B1B6C03F48073FB609C
:101A8800FB68002200212D2001F0F3F92D2001F040
:101A98000CFA00BF1837BD4680BD00BF00440140A6
:101AA80000380240001C00400020004080B588B08B
:101AB80000AF786007F10C0300221A605A609A6040
:101AC800DA601A617B681B68124A93421ED10023B0
:101AD800BB60114B1B6B104A43F0080313630E4B9A
:101AE8001B6B03F00803BB60BB684FF48053FB60BB
:101AF80002233B6100237B610023BB610223FB615E
:101B080007F10C031946054801F062FE00BF2037B3
:101B1800BD4680BD0008004000380240000C02406D
:101B280080B400AFFEE780B400AFFEE780B400AF3A
:101B3800FEE780B400AFFEE780B400AFFEE780B4F4
:101B480000AF00BFBD465DF8047B704780B400AFAE
:101B580000BFBD465DF8047B704780B400AF00BF8E
:101B6800BD465DF8047B704780B500AF00F014FBFC
:101B780000BF80BD80B500AF024800F070FB00BF19
:101B880080BD00BF7402002080B500AF024802F09B
:101B9800C6FE00BF80BD00BF2002002080B500AF98
:101BA800024802F0BCFE00BF80BD00BFBC0200209E
:101BB80080B500AF024802F0B2FE00BF80BD00BF92
:101BC8006403002080B500AF024801F097FB00BF16
:101BD80080BD00BF0403002080B400AF064BD3F8DB
:101BE8008830054A43F47003C2F8883000BFBD4608
:101BF8005DF8047B704700BF00ED00E080B500AFE2
:101C08000E4B1B88002B17D00C4B1B88B3F5967F07
:101C18000BD0B3F5967F0BDC642B02D0C82B01D018
:101C280006E0FEE701F04FF903E000F0A3F900E059
:101C380000BF024B00221A8000BF80BDAC03002009
:101C480080B582B000AF7860FEF7C0FC00BF0837EF
:101C5800BD4680BD80B582B000AF78607B681B68E8
:101C68000C4A934202D100F097F90EE07B681B689A
:101C7800094A934202D100F057F906E07B681B68D5
:101C8800064A934201D100F05DF900BF0837BD460E
:101C980080BD00BF0044014000200040001C0040FF
:101CA80080B582B000AF0120FFF7F4F90023FB7183
:101CB80000F024F803461A46FB791344FB7100F040
:101CC80081F803461A46FB791344FB7100F0CCF8FF
:101CD80003461A46FB791344FB7100F005F90346E5
:101CE8001A46FB791344FB71FB79002B01D0FFF7EF
:101CF80009FA00BF0837BD4680BD000080B588B02E
:101D080002AF0023FB7532233B814FF49673BB81EE
:101D18004FF4FA737B8100233B6101233B80274BFF
:101D28007B600123FB730023BB736A4607F10C0336
:101D380093E8030082E803003B460ECB0020FEF741
:101D480013FE03461A46FB7D1344FB7580233B8034
:101D58001B4B7B600023FB730023BB736A4607F1B0
:101D68000C0393E8030082E803003B460ECB0120F6
:101D7800FEF7FAFD03461A46FB7D1344FB754FF444
:101D880080733B800E4B7B600023FB730123BB7386
:101D98006A4607F10C0393E8030082E803003B4618
:101DA8000ECB0220FEF7E0FD03461A46FB7D1344E6
:101DB800FB75FB7D18461837BD4680BD0000024004
:101DC8000010024080B584B000AF0023FB730023ED
:101DD8003B724FF400533B80174B7B603B460ECB66
:101DE8000020FFF75BF803461A46FB7B1344FB739E
:101DF8004FF480433B80104B7B603B460ECB012069
:101E0800FFF74CF803461A46FB7B1344FB734FF469
:101E180000433B80084B7B603B460ECB0220FFF71C
:101E28003DF803461A46FB7B1344FB73FB7B1846BD
:101E38001037BD4680BD00BF000C024080B483B09F
:101E480000AF78607B684FF4FA7202FB03F35B081B
:101E5800044AA2FB03239B0A18460C37BD465DF8CB
:101E6800047B704701021080F0B591B00EAF0023DB
:101E7800FB714FF41673194A19460020FEF762FBEE
:101E880003461A46FB791344FB714FF4FA63144A6C
:101E980019460120FEF756FB03461A46FB79134400
:101EA800FB71104E6D4606F110040FCC0FC50FCC18
:101EB8000FC50FCC0FC594E8030085E8030096E82A
:101EC8000F00FEF7FDFB03461A46FB791344FB712E
:101ED800FB7918460C37BD46F0BD00BFF506000873
:101EE800451E00087402002080B582B000AF0023B0
:101EF800FB710C4A00210020FEF70EFC03461A462F
:101F0800FB791344FB71074A10210120FEF704FCFA
:101F180003461A46FB791344FB71FB7918460837C8
:101F2800BD4680BD4509000880B500AF00F06CF8DB
:101F380000F038F800F04CF800F098F8FFF75EFE73
:101F480000BF80BD80B500AF094B9B680133084ACC
:101F580093600020FEF7F0FF054B1B7B012B04D19B
:101F6800034B1B680133024A136000BF80BD00BFEA
:101F78004C01002080B400AF064B00221A60054BCC
:101F880000221A73034B00229A6000BFBD465DF819
:101F9800047B70474C01002080B500AFFEF7A8FD18
:101FA80000BF80BD80B500AF084B1B6803F001037C
:101FB800002B04D001210220FEF7EAFF03E00021F4
:101FC8000220FEF7E5FF00BF80BD00BF4C010020E6
:101FD80080B582B000AF00233B603B461A46022121
:101FE8000020FEF769FA3B68C3F5A5737B607B6840
:101FF80023EAE3737B607A6802210020FEF7D8FBAE
:1020080000BF0837BD4680BD80B500AF0221002063
:10201800FEF7A4FD0346002B08D0134B1B680133C1
:10202800114A136002210020FEF7C4FD042100209C
:10203800FEF794FD0346002B06D00B4B00221A60D6
:1020480004210020FEF7B6FD03210020FEF786FDDF
:102058000346002B03D0044B01221A7302E0024B03
:1020680000221A7300BF80BD4C01002080B500AF6C
:102078000120FEF717FD0346012B0AD10220FEF7C7
:1020880011FD0346012B04D101210120FEF780FF39
:1020980004E000210120FEF77BFF00BF00BF80BDE8
:1020A800DFF834D00D480E490E4A002302E0D45818
:1020B800C4500433C4188C42F9D30B4A0B4C002388
:1020C80001E013600432A242FBD3FFF785FD03F061
:1020D800F9F8FFF71FF87047000002200000002001
:1020E8000C000020C45600080C000020B403002097
:1020F800FEE7000080B500AF0E4B1B680D4A43F4A5
:10210800007313600B4B1B680A4A43F48063136027
:10211800084B1B68074A43F480731360032000F0E0
:102128009DFE0F2000F008F8FFF706FB0023184675
:1021380080BD00BF003C024080B582B000AF78602F
:10214800124B1A68124B1B7819464FF47A73B3FB7B
:10215800F1F3B2FBF3F3184600F0B9FE0346002B87
:1021680001D001230EE07B680F2B0AD80022796882
:102178004FF0FF3000F07DFE064A7B6813600023B5
:1021880000E0012318460837BD4680BD0000002046
:10219800080000200400002080B400AF064B1B7824
:1021A8001A46064B1B681344044A136000BFBD4619
:1021B8005DF8047B704700BF08000020B0030020D2
:1021C80080B400AF034B1B681846BD465DF8047B1E
:1021D800704700BFB003002080B584B000AF7860BE
:1021E8000023FB737B68002B01D1012333E07B685C
:1021F8001B6C002B09D17868FFF7C6FA7B680022B0
:102208005A647B68002283F83C207B681B6C03F0CF
:102218001003002B18D17B681B6C23F4885323F020
:10222800020343F002027B681A64786800F0A8FB96
:102238007B6800225A647B681B6C23F0030343F01D
:1022480001027B681A6401E00123FB737B680022AA
:1022580083F83C20FB7B18461037BD4680BD80B50F
:1022680084B000AF78600023FB600023BB607B680C
:102278001B681B6803F00203022B0CBF0123002319
:10228800DBB2FB607B681B685B6803F02003202BD4
:102298000CBF01230023DBB2BB60FB68002B49D0D5
:1022A800BB68002B46D07B681B6C03F01003002B27
:1022B80005D17B681B6C43F400727B681A647B68E9
:1022C8001B689B6803F04053002B2BD17B681B7E57
:1022D800002B27D17B681B68DB6A03F47003002B93
:1022E80006D07B681B689B6803F48063002B19D1B8
:1022F8007B681B685A687B681B6822F020025A605A
:102308007B681B6C23F480727B681A647B681B6C87
:1023180003F48053002B05D17B681B6C43F001024A
:102328007B681A647868FFF78BFC7B681B686FF022
:1023380012021A607B681B681B6803F00403042BF5
:102348000CBF01230023DBB2FB607B681B685B6862
:1023580003F08003802B0CBF01230023DBB2BB609A
:10236800FB68002B57D0BB68002B54D07B681B6CD4
:1023780003F01003002B05D17B681B6C43F400525B
:102388007B681A647B681B689B6803F44013002B06
:1023980039D17B681B689B6B03F44013002B06D074
:1023A8007B681B689B6803F48063002B2BD17B68D8
:1023B8001B685B6803F48063002B24D17B681B686F
:1023C8009B6803F04053002B1DD17B681B7E002BBC
:1023D80019D17B681B685A687B681B6822F08002E9
:1023E8005A607B681B6C23F480527B681A647B6894
:1023F8001B6C03F48073002B05D17B681B6C43F0C6
:1024080001027B681A64786800F038FC7B681B68F6
:102418006FF00C021A607B681B681B6803F00103ED
:10242800012B0CBF01230023DBB2FB607B681B6818
:102438005B6803F04003402B0CBF01230023DBB291
:10244800BB60FB68002B17D0BB68002B14D07B68DF
:102458001B681B6803F00103012B0DD17B681B6C03
:1024680043F480327B681A64786800F053F97B681B
:102478001B686FF001021A607B681B681B6803F019
:102488002003202B0CBF01230023DBB2FB607B68F9
:102498001B685B6803F08063B3F1806F0CBF012396
:1024A8000023DBB2BB60FB68002B15D0BB68002B98
:1024B80012D07B685B6C43F002027B685A647B68CD
:1024C8001B686FF020021A60786800F02DF97B68AD
:1024D8001B686FF020021A6000BF1037BD4680BD30
:1024E80080B586B000AFF860B9607A6000233B61C0
:1024F800FB6893F83C30012B01D10223E9E0FB682B
:10250800012283F83C20FB681B689B6803F00103E9
:10251800012B18D0FB681B689A68FB681B6842F09F
:1025280001029A606D4B1B686D4AA2FB03239A0C4B
:1025380013465B0013443B6102E03B69013B3B618E
:102548003B69002BF9D1FB681B689B6803F4807317
:10255800B3F5807F07D1FB681B689A68FB681B6826
:1025680022F480729A60FB681B689B6803F0010381
:10257800012B40F0A180FB681B6C23F4E06323F07F
:10258800010343F48072FB681A64FB681B685B688C
:1025980003F48063002B07D0FB681B6C23F44053C3
:1025A80043F48052FB681A64FB681B6C03F4805385
:1025B800B3F5805F06D1FB685B6C23F00602FB680D
:1025C8005A6402E0FB6800225A64FB68002283F820
:1025D8003C20444B7B61FB689B6B434ADA63FB6896
:1025E8009B6B424A1A64FB689B6B414ADA64FB683E
:1025F8001B686FF022021A60FB681B685A68FB6848
:102608001B6842F080625A60FB681B689A68FB6826
:102618001B6842F480729A60FB68986BFB681B68C1
:102628004C331946BA687B6800F010FE7B695B681A
:1026380003F01F03002B2AD1FB681B682D4A934225
:1026480015D0FB681B682C4A934205D1254B5B6863
:1026580003F01F03002B0AD0FB681B68274A93422C
:1026680036D1204B5B6803F01003002B30D1FB6898
:102678001B689B6803F04053002B29D1FB681B683B
:102688009A68FB681B6842F080429A6020E0FB6809
:102698001B68184A93421BD1FB681B689B6803F0B0
:1026A8004053002B14D1FB681B689A68FB681B68B1
:1026B80042F080429A600BE0FB681B6C43F010020A
:1026C800FB681A64FB685B6C43F00102FB685A64A0
:1026D800002318461837BD4680BD00BF0000002003
:1026E80083DE1B4300230140812B00083B2C00089C
:1026F800572C000800200140002101400022014021
:1027080080B483B000AF786000BF0C37BD465DF879
:10271800047B704780B483B000AF786000BF0C378B
:10272800BD465DF8047B704780B483B000AF786025
:1027380000BF0C37BD465DF8047B704780B485B098
:1027480000AF786039600023BB607B6893F83C3049
:10275800012B01D1022305E17B68012283F83C208B
:102768003B681B68092B25D97B681B68D9683B68BF
:102778001B689BB21A4613465B0013441E3B072294
:1027880002FA03F3DA437B681B680A40DA607B6865
:102798001B68D9683B689A683B681B689BB21846F7
:1027A80003465B0003441E3B9A407B681B680A4350
:1027B800DA6022E07B681B6819693B681B689BB27A
:1027C8001A4613465B001344072202FA03F3DA435E
:1027D8007B681B680A401A617B681B6819693B683B
:1027E8009A683B681B689BB2184603465B00034423
:1027F8009A407B681B680A431A613B685B68062B32
:1028080024D87B681B68596B3B685A6813469B0041
:102818001344053B1F2202FA03F3DA437B681B6863
:102828000A405A637B681B68596B3B681B689BB2FC
:1028380018463B685A6813469B001344053B00FA48
:1028480003F27B681B680A435A634CE03B685B6889
:102858000C2B24D87B681B68196B3B685A68134695
:102868009B001344233B1F2202FA03F3DA437B68DD
:102878001B680A401A637B681B68196B3B681B68F6
:102888009BB218463B685A6813469B001344233B87
:1028980000FA03F27B681B680A431A6323E07B682B
:1028A8001B68D96A3B685A6813469B001344413B2E
:1028B8001F2202FA03F3DA437B681B680A40DA62D4
:1028C8007B681B68D96A3B681B689BB218463B68E3
:1028D8005A6813469B001344413B00FA03F27B6895
:1028E8001B680A43DA62224BFB607B681B68214A3B
:1028F800934209D13B681B68122B05D1FB685B68C2
:1029080043F48002FB685A607B681B68194A93424B
:1029180023D13B681B68102B03D03B681B68112B25
:102928001BD1FB685B6843F40002FB685A603B6894
:102938001B68102B11D1104B1B68104AA2FB0323F4
:102948009A0C13469B0013445B00BB6002E0BB6813
:10295800013BBB60BB68002BF9D17B68002283F880
:102968003C20002318461437BD465DF8047B7047A9
:1029780000230140002001400000002083DE1B43AB
:1029880080B485B000AF7860794BFB60FB685B680A
:1029980023F44032FB685A60FB685A687B685B68BE
:1029A8001A43FB685A607B681B685A687B681B6817
:1029B80022F480725A607B681B6859687B681B69BF
:1029C8001A027B681B680A435A607B681B685A684E
:1029D8007B681B6822F040725A607B681B685968E4
:1029E8007B689A687B681B680A435A607B681B6827
:1029F8009A687B681B6822F400629A607B681B688F
:102A080099687B68DA687B681B680A439A607B6808
:102A18009B6A584A934222D07B681B689A687B68F5
:102A28001B6822F070629A607B681B6899687B68F3
:102A38009A6A7B681B680A439A607B681B689A6875
:102A48007B681B6822F040529A607B681B68996813
:102A58007B68DA6A7B681B680A439A600FE07B68C8
:102A68001B689A687B681B6822F070629A607B68B2
:102A78001B689A687B681B6822F040529A607B68E2
:102A88001B689A687B681B6822F002029A607B6860
:102A98001B6899687B681B7E5A007B681B680A4321
:102AA8009A607B6893F82030002B1BD07B681B68EA
:102AB8005A687B681B6842F400625A607B681B682E
:102AC8005A687B681B6822F460425A607B681B68FE
:102AD80059687B685B6A013B5A037B681B680A4339
:102AE8005A6007E07B681B685A687B681B6822F499
:102AF80000625A607B681B68DA6A7B681B6822F48C
:102B08007002DA627B681B68D96A7B68DB69013B03
:102B18001A057B681B680A43DA627B681B689A6837
:102B28007B681B6822F400729A607B681B6899684E
:102B38007B6893F830305A027B681B680A439A60B6
:102B48007B681B689A687B681B6822F480629A60BD
:102B58007B681B6899687B685B699A027B681B685D
:102B68000A439A6000BF1437BD465DF8047B70477E
:102B7800002301400100000F80B584B000AF7860E9
:102B88007B689B6BFB60FB681B6C03F05003002B9E
:102B98003CD1FB681B6C43F40072FB681A64FB6849
:102BA8001B689B6803F04053002B2BD1FB681B7EEE
:102BB800002B27D1FB681B68DB6A03F47003002B2A
:102BC80006D0FB681B689B6803F48063002B19D14F
:102BD800FB681B685A68FB681B6822F020025A6071
:102BE800FB681B6C23F48072FB681A64FB681B6C1F
:102BF80003F48053002B05D1FB681B6C43F00102E2
:102C0800FB681A64F868FFF71BF80EE0FB681B6C9A
:102C180003F01003002B03D0F868FFF785FD04E0EC
:102C2800FB689B6BDB6C7868984700BF1037BD4624
:102C380080BD80B584B000AF78607B689B6BFB601B
:102C4800F868FFF75DFD00BF1037BD4680BD80B551
:102C580084B000AF78607B689B6BFB60FB684022A8
:102C68001A64FB685B6C43F00402FB685A64F868FA
:102C7800FFF75AFD00BF1037BD4680BD80B483B052
:102C880000AF786000BF0C37BD465DF8047B704725
:102C980080B485B000AF78607B6803F00703FB6001
:102CA8000C4BDB68BB60BA684FF6FF031340BB6090
:102CB800FB681A02BB68134343F0BF6343F4003355
:102CC800BB60044ABB68D36000BF1437BD465DF8DB
:102CD800047B704700ED00E080B400AF044BDB6874
:102CE8001B0A03F007031846BD465DF8047B7047CE
:102CF80000ED00E080B483B000AF0346FB7197F9A4
:102D08000730002B0BDBFB7903F01F02074997F90B
:102D180007305B09012000FA02F241F8232000BFC6
:102D28000C37BD465DF8047B704700BF00E100E04A
:102D380080B483B000AF03463960FB7197F9073060
:102D4800002B0ADB3B68DAB20C4997F9073012010D
:102D5800D2B20B4483F800230AE03B68DAB2084990
:102D6800FB7903F00F03043B1201D2B20B441A762D
:102D780000BF0C37BD465DF8047B704700E100E0FA
:102D880000ED00E080B489B000AFF860B9607A6007
:102D9800FB6803F00703FB61FB69C3F10703042B1E
:102DA80028BF0423BB61FB690433062B02D9FB69E6
:102DB800033B00E000237B614FF0FF32BB6902FA5E
:102DC80003F3DA43BB681A407B699A404FF0FF313E
:102DD8007B6901FA03F3D9437B680B401343184618
:102DE8002437BD465DF8047B7047000080B400AF0F
:102DF800BFF34F8F00BF064BDB6803F4E062044962
:102E0800044B1343CB60BFF34F8F00BF00BFFDE7F8
:102E180000ED00E00400FA0580B582B000AF7860EC
:102E28007B68013BB3F1807F01D301230FE00A4A9D
:102E38007B68013B53600F214FF0FF30FFF778FFAD
:102E4800054B00229A60044B07221A60002318469B
:102E58000837BD4680BD00BF10E000E080B582B0F5
:102E680000AF78607868FFF713FF00BF0837BD46EA
:102E780080BD80B586B000AF0346B9607A60FB7349
:102E880000237B61FFF728FF78617A68B968786961
:102E9800FFF778FF024697F90F3011461846FFF7FB
:102EA80047FF00BF1837BD4680BD80B582B000AF70
:102EB8000346FB7197F907301846FFF71BFF00BF61
:102EC8000837BD4680BD80B500AFFFF78FFF80B5DE
:102ED80082B000AF78607868FFF79EFF0346184617
:102EE8000837BD4680BD80B582B000AF78607B688A
:102EF800002B01D1012314E07B681B79DBB2002B86
:102F080005D17B6800225A717868FEF7BDFC7B68A2
:102F180002221A717B6800221A617B6801221A71E9
:102F2800002318460837BD4680BD80B483B000AF83
:102F3800786039607B685B79012B01D1022340E01E
:102F48007B6801225A717B6802221A717B681B68B0
:102F580019683B6803F0100301229A407B681B68DC
:102F68000A431A603B68002B0FD17B681B681B68FB
:102F780003F03C033C2B1DD17B681B685A687B68B7
:102F88001B6842F001025A6014E07B681B681B68EA
:102F980003F470123B6803F010033C2101FA03F3B9
:102FA8009A4207D17B681B685A687B681B6842F0A5
:102FB80002025A607B6801221A717B6800225A71EA
:102FC800002318460C37BD465DF8047B704780B473
:102FD80083B000AF786039607B681B6819683B680C
:102FE80003F01003012202FA03F3DA437B681B683B
:102FF8000A401A607B6801221A71002318460C37B0
:10300800BD465DF8047B704780B487B000AFF860B8
:10301800B9607A603B6000237B61FB681B687B6159
:10302800BB68002B05D17A697B68134408337B6140
:1030380004E07A697B68134414337B617B691A4620
:103048003B681360002318461C37BD465DF8047BB7
:10305800704780B487B000AFF860B9607A60FB68E9
:103068005B79012B01D102233CE0FB6801225A71F4
:10307800FB6802221A71FB681B681B687B617B680E
:1030880003F0100340F6FE7202FA03F3DB437A6999
:1030980013407B61BB681A68BB685B6813433B617C
:1030A8007B6803F010033A6902FA03F37A69134361
:1030B8007B61FB681B687A691A60FB681B68196882
:1030C8007B6803F01003C02202FA03F3DA43FB68BB
:1030D8001B680A401A60FB6801221A71FB6800220B
:1030E8005A71002318461C37BD465DF8047B7047AB
:1030F80080B586B000AF786000237B61FFF760F889
:1031080038617B68002B01D1012399E07B6802229A
:1031180083F835207B68002283F834207B681B689D
:103128001A687B681B6822F001021A600FE0FFF73B
:1031380047F802463B69D31A052B08D97B68202239
:103148005A657B68032283F83520032378E07B687F
:103158001B681B6803F00103002BE8D17B681B6820
:103168001B687B617A69384B13407B617B685A68BE
:103178007B689B681A437B68DB681A437B681B691A
:103188001A437B685B691A437B689B691A437B68AF
:10319800DB691A437B681B6A13437A6913437B61B3
:1031A8007B685B6A042B07D17B68DA6A7B681B6BD8
:1031B80013437A6913437B617B681B687A691A60D9
:1031C8007B681B685B697B617B6923F007037B6114
:1031D8007B685B6A7A6913437B617B685B6A042B53
:1031E80017D17B689B6A7A6913437B617B68DB6ACA
:1031F800002B0ED0786800F06FFA0346002B08D039
:103208007B6840225A657B68012283F835200123B8
:1032180016E07B681B687A695A61786800F026FABC
:103228000346FB607B68DB6D3F229A40FB689A602F
:103238007B6800225A657B68012283F835200023C9
:1032480018461837BD4680BD3F8010F080B586B05F
:1032580000AFF860B9607A603B600023FB75FB68DB
:103268009B6D3B61FB6893F83430012B01D102233D
:1032780040E0FB68012283F83420FB6893F835307E
:10328800DBB2012B2FD1FB68022283F83520FB68C3
:1032980000225A653B687A68B968F86800F0B8F99E
:1032A800FB68DB6D3F229A403B699A60FB681B68AC
:1032B8001A68FB681B6842F016021A60FB681B6CF0
:1032C800002B07D0FB681B681A68FB681B6842F074
:1032D80008021A60FB681B681A68FB681B6842F0E2
:1032E80001021A6005E0FB68002283F834200223FB
:1032F800FB75FB7D18461837BD4680BD80B586B086
:1033080000AF78600023BB60924B1B68924AA2FB17
:1033180003239B0A7B617B689B6D3B613B691B6850
:10332800FB607B68DB6D08229A40FB681340002B2A
:103338001AD07B681B681B6803F00403002B13D0AA
:103348007B681B681A687B681B6822F004021A6095
:103358007B68DB6D08229A403B699A607B685B6DED
:1033680043F001027B685A657B68DB6D01229A4055
:10337800FB681340002B12D07B681B685B6903F065
:103388008003002B0BD07B68DB6D01229A403B69E0
:103398009A607B685B6D43F002027B685A657B68C4
:1033A800DB6D04229A40FB681340002B12D07B6827
:1033B8001B681B6803F00203002B0BD07B68DB6DD6
:1033C80004229A403B699A607B685B6D43F0040273
:1033D8007B685A657B68DB6D10229A40FB68134056
:1033E800002B43D07B681B681B6803F00803002B85
:1033F8003CD07B68DB6D10229A403B699A607B6801
:103408001B681B6803F48023002B18D07B681B689B
:103418001B6803F40023002B08D17B681B6C002B6E
:1034280024D07B681B6C786898471FE07B689B6C8E
:10343800002B1BD07B689B6C7868984716E07B68EC
:103448001B681B6803F48073002B07D17B681B681B
:103458001A687B681B6822F008021A607B681B6C7C
:10346800002B03D07B681B6C786898477B68DB6D02
:1034780020229A40FB681340002B00F08E807B6866
:103488001B681B6803F01003002B00F086807B6824
:10349800DB6D20229A403B699A607B6893F835304F
:1034A800DBB2052B36D17B681B681A687B681B6802
:1034B80022F016021A607B681B685A697B681B68D1
:1034C80022F080025A617B681B6C002B03D17B6859
:1034D8009B6C002B07D07B681B681A687B681B688D
:1034E80022F008021A607B68DB6D3F229A403B6934
:1034F8009A607B68012283F835207B68002283F874
:1035080034207B681B6D002B7DD07B681B6D786831
:10351800984778E07B681B681B6803F48023002BBE
:103528001CD07B681B681B6803F40023002B08D1A0
:103538007B685B6C002B30D07B685B6C7868984745
:103548002BE07B68DB6B002B27D07B68DB6B786814
:10355800984722E000000020B5814E1B7B681B685D
:103568001B6803F48073002B0FD17B681B681A68F3
:103578007B681B6822F010021A607B68012283F8BE
:1035880035207B68002283F834207B68DB6B002BB6
:1035980003D07B68DB6B786898477B685B6D002B92
:1035A80032D07B685B6D03F00103002B22D07B686F
:1035B800052283F835207B681B681A687B681B68BE
:1035C80022F001021A60BB680133BB607A699A4233
:1035D80007D37B681B681B6803F00103002BF2D13B
:1035E80000E000BF7B68012283F835207B68002259
:1035F80083F834207B68DB6C002B05D07B68DB6CA0
:103608007868984700E000BF1837BD4680BD00BF06
:1036180080B485B000AFF860B9607A603B60FB6841
:103628001B681A68FB681B6822F480221A60FB6812
:103638001B683A685A60FB689B68402B08D1FB6896
:103648001B687A689A60FB681B68BA68DA6007E0EA
:10365800FB681B68BA689A60FB681B687A68DA605E
:1036680000BF1437BD465DF8047B704780B485B051
:1036780000AF78607B681B68DBB2103B144AA2FB82
:1036880003231B09FB60134AFB6813441B781A4683
:103698007B68DA65FB68032B09D97B681B6823F410
:1036A8007F7323F003031A1D7B689A6507E07B6824
:1036B8001B6823F47F7323F003037A6893657B68A0
:1036C8009B6D18461437BD465DF8047B704700BFF4
:1036D800ABAAAAAAAC56000880B485B000AF78603F
:1036E8000023FB737B689B6ABB607B689B69002B2C
:1036F8001FD1BB68032B56D801A252F823F000BF94
:10370800193700082B37000819370008AF370008A9
:103718007B68DB6A03F08073002B46D00123FB73C0
:1037280043E07B68DB6AB3F1C07F40D10123FB73C0
:103738003DE07B689B69B3F5005F21D1BB68032B33
:1037480037D801A252F823F061370008673700081C
:1037580061370008793700080123FB7330E07B6884
:10376800DB6A03F08073002B25D00123FB7322E072
:103778007B68DB6AB3F1C07F1FD10123FB731CE0B8
:10378800BB68022B03D9BB68032B03D018E00123C5
:10379800FB7315E07B68DB6A03F08073002B0ED0A7
:1037A8000123FB730BE000BF0AE000BF08E000BF85
:1037B80006E000BF04E000BF02E000BF00E000BF79
:1037C800FB7B18461437BD465DF8047B704700BF85
:1037D80080B489B000AF7860396000237B61002332
:1037E8003B610023BB610023FB616BE10122FB69A4
:1037F80002FA03F37B613B681B687A6913403B61FB
:103808003A697B699A4240F05A813B685B6803F0E9
:103818000303012B05D03B685B6803F00303022B0D
:1038280030D17B689B68BB61FB695B00032202FAAD
:1038380003F3DB43BA691340BB613B68DA68FB6991
:103848005B0002FA03F3BA691343BB617B68BA6988
:103858009A607B685B68BB610122FB6902FA03F32B
:10386800DB43BA691340BB613B685B681B0903F023
:103878000102FB6902FA03F3BA691343BB617B686F
:10388800BA695A603B685B6803F00303032B17D0DF
:103898007B68DB68BB61FB695B00032202FA03F308
:1038A800DB43BA691340BB613B689A68FB695B00FC
:1038B80002FA03F3BA691343BB617B68BA69DA6039
:1038C8003B685B6803F00303022B23D1FB69DA082A
:1038D8007B68083253F82230BB61FB6903F00703A9
:1038E8009B000F2202FA03F3DB43BA691340BB6162
:1038F8003B681A69FB6903F007039B0002FA03F3AC
:10390800BA691343BB61FB69DA087B680832B96995
:1039180043F822107B681B68BB61FB695B000322CC
:1039280002FA03F3DB43BA691340BB613B685B6887
:1039380003F00302FB695B0002FA03F3BA6913435D
:10394800BB617B68BA691A603B685B6803F4403303
:10395800002B00F0B4800023FB60604B5B6C5F4A77
:1039680043F4804353645D4B5B6C03F48043FB601A
:10397800FB685B4AFB699B08023352F82330BB6142
:10398800FB6903F003039B000F2202FA03F3DB43F6
:10399800BA691340BB617B68524A93422BD07B685B
:1039A800514A934225D07B68504A93421FD07B6886
:1039B8004F4A934219D07B684E4A934213D07B6892
:1039C8004D4A93420DD07B684C4A934207D07B689E
:1039D8004B4A934201D107230EE008230CE006234B
:1039E8000AE0052308E0042306E0032304E0022399
:1039F80002E0012300E00023FA6902F003029200CA
:103A08009340BA691343BB613549FB699B0802338C
:103A1800BA6941F823203B4B1B68BB613B69DB4318
:103A2800BA691340BB613B685B6803F48033002BC1
:103A380003D0BA693B691343BB61324ABB6913605F
:103A4800304B5B68BB613B69DB43BA691340BB61C0
:103A58003B685B6803F40033002B03D0BA693B6909
:103A68001343BB61274ABB695360264B9B68BB6104
:103A78003B69DB43BA691340BB613B685B6803F48D
:103A88008013002B03D0BA693B691343BB611D4AFD
:103A9800BB6993601B4BDB68BB613B69DB43BA695D
:103AA8001340BB613B685B6803F40013002B03D031
:103AB800BA693B691343BB61124ABB69D360FB69AE
:103AC8000133FB61FB690F2B7FF690AE00BF00BF8F
:103AD8002437BD465DF8047B704700BF00380240BC
:103AE8000038014000000240000402400008024083
:103AF800000C02400010024000140240001802406E
:103B0800001C0240003C014080B485B000AF7860E2
:103B18000B467B807B681A697B881340002B02D098
:103B28000123FB7301E00023FB73FB7B184614376A
:103B3800BD465DF8047B704780B483B000AF786001
:103B48000B467B8013467B707B78002B03D07A88EA
:103B58007B689A6103E07B881A047B689A6100BFDE
:103B68000C37BD465DF8047B7047000080B584B013
:103B780000AF78607B68002B01D101232BE17B68C3
:103B880093F83D30DBB2002B06D17B68002283F826
:103B98003C207868FDF7BCFE7B68242283F83D2032
:103BA8007B681B681A687B681B6822F001021A6030
:103BB8007B681B681A687B681B6842F400421A60BD
:103BC8007B681B681A687B681B6822F400421A60CD
:103BD80000F082FDF8607B685B68814A934207D8F1
:103BE800FB68804A934294BF01230023DBB206E0BE
:103BF800FB687D4A934294BF01230023DBB2002B6C
:103C080001D00123E7E0FB68784AA2FB03239B0C61
:103C1800BB607B681B685B6823F03F017B681B689F
:103C2800BA680A435A607B681B681B6A23F03F0125
:103C38007B685B686A4A934202D8BB68013309E033
:103C4800BB684FF4967202FB03F3694AA2FB032395
:103C58009B0901337A6812680B4313627B681B68FF
:103C6800DB6923F44F4222F0FF027B685B685C4902
:103C78008B4219D8FB68591E7B685B685B00B1FBF7
:103C8800F3F3591C40F6FC730B40002B0AD0FB6879
:103C9800591E7B685B685B00B1FBF3F30133C3F328
:103CA8000B0351E004234FE07B689B68002B11D184
:103CB800FB68581E7B6859680B465B000B44B0FBD9
:103CC800F3F30133C3F30B03002B0CBF01230023D1
:103CD800DBB212E0FB68581E7B6859680B469B00F4
:103CE8000B4499000B44B0FBF3F30133C3F30B030C
:103CF800002B0CBF01230023DBB2002B01D00123D2
:103D080022E07B689B68002B0ED1FB68581E7B68FD
:103D180059680B465B000B44B0FBF3F30133C3F364
:103D28000B0343F400430FE0FB68581E7B68596897
:103D38000B469B000B4499000B44B0FBF3F3013393
:103D4800C3F30B0343F44043796809681343CB6119
:103D58007B681B681B6823F0C0017B68DA697B6895
:103D68001B6A1A437B681B680A431A607B681B68D6
:103D78009B6823F4034323F0FF037A6811697A6888
:103D8800D26811437A6812680B4393607B681B689A
:103D9800DB6823F0FF017B685A697B689B691A43DB
:103DA8007B681B680A43DA607B681B681A687B6853
:103DB8001B6842F001021A607B6800221A647B6863
:103DC800202283F83D207B6800221A637B6800224A
:103DD80083F83E20002318461037BD4680BD00BF3B
:103DE800A08601007F841E00FF083D0083DE1B4380
:103DF800D34D621080B584B000AF78607B68002B2B
:103E080001D1012334E07B681B684CF6CC421A6070
:103E18007B681B6845F255521A607B681B687A6894
:103E280052685A607B681B687A6892689A60FEF7E5
:103E3800C7F9F8600FE0FEF7C3F90246FB68D31A2A
:103E4800312B08D97B681B68DB6803F00303002B60
:103E580001D003230CE07B681B68DB6803F00303D5
:103E6800002BE8D17B681B684AF6AA221A60002357
:103E780018461037BD4680BD80B483B000AF786067
:103E88007B681B684AF6AA221A60002318460C377A
:103E9800BD465DF8047B704780B586B000AF78609A
:103EA8007B68002B01D1012364E27B681B6803F067
:103EB8000103002B75D0A34B9B6803F00C03042B64
:103EC8000CD0A04B9B6803F00C03082B12D19D4B20
:103ED8005B6803F48003B3F5800F0BD1994B1B6823
:103EE80003F40033002B5BD07B685B68002B57D151
:103EF80001233FE27B685B68B3F5803F06D1914BB5
:103F08001B68904A43F4803313601DE07B685B684C
:103F1800B3F5A02F0CD18B4B1B688A4A43F480233E
:103F28001360884B1B68874A43F4803313600BE0A7
:103F3800844B1B68834A23F480331360814B1B68CE
:103F4800804A23F4802313607B685B68002B13D0BE
:103F5800FEF736F9386108E0FEF732F902463B69A8
:103F6800D31A642B01D9032304E2764B1B6803F4AC
:103F78000033002BF0D014E0FEF722F9386108E096
:103F8800FEF71EF902463B69D31A642B01D90323B5
:103F9800F0E16C4B1B6803F40033002BF0D100E018
:103FA80000BF7B681B6803F00203002B63D0654BDE
:103FB8009B6803F00C03002B0BD0624B9B6803F04B
:103FC8000C03082B1CD15F4B5B6803F48003002BA8
:103FD80016D15C4B1B6803F00203002B05D07B68ED
:103FE800DB68012B01D00123C4E1564B1B6823F089
:103FF800F8027B681B69DB00524913430B603AE007
:104008007B68DB68002B20D04F4B01221A60FEF73B
:10401800D7F8386108E0FEF7D3F802463B69D31AAF
:10402800022B01D90323A5E1464B1B6803F00203C9
:10403800002BF0D0434B1B6823F0F8027B681B6908
:10404800DB00404913430B6015E03F4B00221A6028
:10405800FEF7B6F8386108E0FEF7B2F802463B69A9
:10406800D31A022B01D9032384E1364B1B6803F0D2
:104078000203002BF0D17B681B6803F00803002BB8
:1040880030D07B685B69002B16D0304B01221A6058
:10409800FEF796F8386108E0FEF792F802463B69A9
:1040A800D31A022B01D9032364E1264B5B6F03F07B
:1040B8000203002BF0D015E0244B00221A60FEF713
:1040C8007FF8386108E0FEF77BF802463B69D31AAF
:1040D800022B01D903234DE11A4B5B6F03F0020356
:1040E800002BF0D17B681B6803F00403002B00F061
:1040F800A0800023FB75134B1B6C03F08053002B2F
:104108000FD10023BB600F4B1B6C0E4A43F080534A
:1041180013640C4B1B6C03F08053BB60BB6801231A
:10412800FB750B4B1B6803F48073002B21D1084BE4
:104138001B68074A43F480731360FEF741F838613F
:1041480011E000BF0038024000004742800E47429D
:1041580000700040FEF734F802463B69D31A022B80
:1041680001D9032306E1854B1B6803F48073002BF8
:10417800F0D07B689B68012B06D1814B1B6F804A6E
:1041880043F0010313671CE07B689B68052B0CD187
:104198007B4B1B6F7A4A43F004031367784B1B6F02
:1041A800774A43F0010313670BE0754B1B6F744AA2
:1041B80023F001031367724B1B6F714A23F004034A
:1041C80013677B689B68002B15D0FDF7F9FF3861F2
:1041D8000AE0FDF7F5FF02463B69D31A41F288323F
:1041E800934201D90323C5E0654B1B6F03F002031B
:1041F800002BEED014E0FDF7E3FF38610AE0FDF78D
:10420800DFFF02463B69D31A41F28832934201D953
:104218000323AFE05A4B1B6F03F00203002BEED1D0
:10422800FB7D012B05D1564B1B6C554A23F080535F
:1042380013647B689B69002B00F09B80504B9B6844
:1042480003F00C03082B5CD07B689B69022B41D1DF
:104258004C4B00221A60FDF7B3FF386108E0FDF708
:10426800AFFF02463B69D31A022B01D9032381E031
:10427800434B1B6803F00073002BF0D17B68DA69AD
:104288007B681B6A1A437B685B6A9B011A437B68DD
:104298009B6A5B08013B1B041A437B68DB6A1B06AD
:1042A800374913434B60374B01221A60FDF788FFEB
:1042B800386108E0FDF784FF02463B69D31A022BF8
:1042C80001D9032356E02E4B1B6803F00073002B23
:1042D800F0D04EE02B4B00221A60FDF771FF3861D9
:1042E80008E0FDF76DFF02463B69D31A022B01D99E
:1042F80003233FE0224B1B6803F00073002BF0D12F
:1043080037E07B689B69012B01D1012332E01C4B0C
:104318005B68FB607B689B69012B28D0FB6803F412
:1043280080027B68DB699A4221D1FB6803F03F0277
:104338007B681B6A9A421AD1FA6847F6C073134021
:104348007A68526A9201934211D1FB6803F44032B1
:104358007B689B6A5B08013B1B049A4207D1FB6898
:1043680003F070627B68DB6A1B069A4201D0012366
:1043780000E0002318461837BD4680BD0070004095
:10438800003802406000474280B584B000AF7860D2
:1043980039607B68002B01D10123CCE0684B1B6896
:1043A80003F007033A689A420CD9654B3A68D2B2CF
:1043B8001A70634B1B6803F007033A689A4201D0EE
:1043C8000123B8E07B681B6803F00203002B20D0B0
:1043D8007B681B6803F00403002B05D0594B9B68CE
:1043E800584A43F4E05393607B681B6803F0080362
:1043F800002B05D0534B9B68524A43F460439360AB
:10440800504B9B6823F0F0027B689B684D4913432F
:104418008B607B681B6803F00103002B44D07B682A
:104428005B68012B07D1474B1B6803F40033002B53
:1044380019D101237FE07B685B68022B03D07B687E
:104448005B68032B07D13F4B1B6803F00073002BFD
:1044580009D101236FE03B4B1B6803F00203002BDB
:1044680001D1012367E0374B9B6823F003027B6887
:104478005B68344913438B60FDF7A2FEF8600AE0DD
:10448800FDF79EFE0246FB68D31A41F2883293423A
:1044980001D903234FE02B4B9B6803F00C027B6888
:1044A8005B689B009A42EBD1254B1B6803F007031E
:1044B8003A689A420CD2224B3A68D2B21A70204B10
:1044C8001B6803F007033A689A4201D0012332E0DF
:1044D8007B681B6803F00403002B08D0194B9B680A
:1044E80023F4E0527B68DB68164913438B607B68D2
:1044F8001B6803F00803002B09D0124B9B6823F4B8
:1045080060427B681B69DB000E4913438B6000F037
:1045180021F802460B4B9B681B0903F00F030A495D
:10452800CB5C22FA03F3094A1360094B1B6818464F
:10453800FDF702FE002318461037BD4680BD00BFB8
:10454800003C024000380240945600080000002059
:1045580004000020B0B584B000AF002179600021CC
:10456800F960002139600021B9605249896801F079
:104578000C0108290DD0082900F29480002902D0E6
:10458800042903D08EE04C4BBB608EE04B4BBB60E4
:104598008BE04849496801F03F017960454949681D
:1045A80001F48001002924D0424949688909084654
:1045B8004FF0000140F2FF144FF0000500EA04023A
:1045C80001EA05033D4901FB03F0002101FB02F16B
:1045D80044183A49A2FB0101631819467B681A4638
:1045E8004FF00003FBF7ECFD02460B461346FB6059
:1045F8004AE0304B5B689B091A464FF0000340F2D3
:10460800FF104FF0000102EA000403EA010520460A
:1046180029464FF000024FF000034B0143EAD063F4
:10462800420110461946001B61EB05014FF00002DC
:104638004FF000038B0143EA90638201121A63EB87
:1046480001034FF000004FF00001D90041EA527118
:10465800D00002460B46121945EB03034FF0000049
:104668004FF00001990241EA9251900202460B462E
:10467800104619467B681A464FF00003FBF7A0FD69
:1046880002460B461346FB600A4B5B681B0C03F0A3
:10469800030301335B003B60FA683B68B2FBF3F34A
:1046A800BB6002E0044BBB6000BFBB681846103714
:1046B800BD46B0BD003802400024F40040787D01BA
:1046C80080B400AF034B1B681846BD465DF8047BF9
:1046D800704700BF0000002080B500AFFFF7F0FF73
:1046E8000246054B9B689B0A03F007030349CB5C12
:1046F80022FA03F3184680BD00380240A456000889
:1047080080B582B000AF78607B68002B01D10123AF
:1047180041E07B6893F83D30DBB2002B06D17B6823
:10472800002283F83C207868FDF75CF97B68022258
:1047380083F83D207B681A687B6804331946104665
:1047480000F0E0FA7B68012283F846207B680122AA
:1047580083F83E207B68012283F83F207B68012292
:1047680083F840207B68012283F841207B6801227E
:1047780083F842207B68012283F843207B6801226A
:1047880083F844207B68012283F845207B68012256
:1047980083F83D20002318460837BD4680BD000039
:1047A80080B485B000AF78607B6893F83D30DBB2A9
:1047B800012B01D001234EE07B68022283F83D20C3
:1047C8007B681B68DA687B681B6842F00102DA6064
:1047D8007B681B68234A934222D07B681B68B3F12D
:1047E800804F1DD07B681B681F4A934218D07B6896
:1047F8001B681E4A934213D07B681B681C4A93426D
:104808000ED07B681B681B4A934209D07B681B68E3
:10481800194A934204D07B681B68184A934211D105
:104828007B681B689B6803F00703FB60FB68062B2B
:1048380010D07B681B681A687B681B6842F001020D
:104848001A6007E07B681B681A687B681B6842F07F
:1048580001021A60002318461437BD465DF8047B30
:10486800704700BF000001400004004000080040FD
:10487800000C0040000401400040014000180040C6
:1048880080B582B000AF78607B68002B01D101232E
:1048980041E07B6893F83D30DBB2002B06D17B68A2
:1048A800002283F83C207868FDF77AF87B680222BA
:1048B80083F83D207B681A687B68043319461046E4
:1048C80000F020FA7B68012283F846207B680122E9
:1048D80083F83E207B68012283F83F207B68012211
:1048E80083F840207B68012283F841207B680122FD
:1048F80083F842207B68012283F843207B680122E9
:1049080083F844207B68012283F845207B680122D4
:1049180083F83D20002318460837BD4680BD80B582
:1049280082B000AF78607B681B681B6903F00203E4
:10493800022B22D17B681B68DB6803F00203022B81
:104948001BD17B681B686FF002021A617B68012229
:104958001A777B681B689B6903F00303002B03D05D
:10496800786800F0B1F905E0786800F0A3F9786894
:1049780000F0B4F97B6800221A777B681B681B6912
:1049880003F00403042B22D17B681B68DB6803F067
:104998000403042B1BD17B681B686FF004021A61A7
:1049A8007B6802221A777B681B689B6903F4407353
:1049B800002B03D0786800F087F905E0786800F0EC
:1049C80079F9786800F08AF97B6800221A777B68A1
:1049D8001B681B6903F00803082B22D17B681B683E
:1049E800DB6803F00803082B1BD17B681B686FF09A
:1049F80008021A617B6804221A777B681B68DB69E6
:104A080003F00303002B03D0786800F05DF905E09C
:104A1800786800F04FF9786800F060F97B68002248
:104A28001A777B681B681B6903F01003102B22D1CF
:104A38007B681B68DB6803F01003102B1BD17B68B5
:104A48001B686FF010021A617B6808221A777B686E
:104A58001B68DB6903F44073002B03D0786800F00F
:104A680033F905E0786800F025F9786800F036F940
:104A78007B6800221A777B681B681B6903F00103B7
:104A8800012B0ED17B681B68DB6803F00103012B47
:104A980007D17B681B686FF001021A617868FDF71F
:104AA800D9F87B681B681B6903F08003802B0ED143
:104AB8007B681B68DB6803F08003802B07D17B6869
:104AC8001B686FF080021A61786800F0F1FB7B6860
:104AD8001B681B6903F04003402B0ED17B681B68E1
:104AE800DB6803F04003402B07D17B681B686FF03D
:104AF80040021A61786800F0FBF87B681B681B6944
:104B080003F02003202B0ED17B681B68DB6803F0C1
:104B18002003202B07D17B681B686FF020021A61E5
:104B2800786800F0BBFB00BF0837BD4680BD0000B9
:104B380080B586B000AFF860B9607A600023FB7575
:104B4800FB6893F83C30012B01D10223AEE0FB68EF
:104B5800012283F83C207B680C2B00F29F8001A285
:104B680052F823F0A14B0008A54C0008A54C0008FA
:104B7800A54C0008E14B0008A54C0008A54C00080E
:104B8800A54C0008234C0008A54C0008A54C0008BB
:104B9800A54C0008634C0008FB681B68B9681846F8
:104BA80000F050F9FB681B689A69FB681B6842F0C3
:104BB80008029A61FB681B689A69FB681B6822F007
:104BC80004029A61FB681B689969BB681A69FB68EB
:104BD8001B680A439A6164E0FB681B68B968184659
:104BE80000F0A0F9FB681B689A69FB681B6842F42F
:104BF80000629A61FB681B689A69FB681B6822F46B
:104C080080629A61FB681B689969BB681B691A0214
:104C1800FB681B680A439A6143E0FB681B68B96834
:104C2800184600F0F5F9FB681B68DA69FB681B6831
:104C380042F00802DA61FB681B68DA69FB681B68E6
:104C480022F00402DA61FB681B68D969BB681A693B
:104C5800FB681B680A43DA6123E0FB681B68B968D4
:104C6800184600F049FAFB681B68DA69FB681B689C
:104C780042F40062DA61FB681B68DA69FB681B684A
:104C880022F48062DA61FB681B68D969BB681B691A
:104C98001A02FB681B680A43DA6102E00123FB750C
:104CA80000BFFB68002283F83C20FB7D18461837BC
:104CB800BD4680BD80B483B000AF786000BF0C37BC
:104CC800BD465DF8047B704780B483B000AF786060
:104CD80000BF0C37BD465DF8047B704780B483B0D5
:104CE80000AF786000BF0C37BD465DF8047B7047A5
:104CF80080B483B000AF786000BF0C37BD465DF864
:104D0800047B704780B485B000AF786039607B68F9
:104D18001B68FB607B68404A934213D07B68B3F101
:104D2800804F0FD07B683D4A93420BD07B683C4A4A
:104D3800934207D07B683B4A934203D07B683A4A48
:104D4800934208D1FB6823F07003FB603B685B6803
:104D5800FA681343FB607B682F4A93422BD07B6829
:104D6800B3F1804F27D07B682C4A934223D07B68CD
:104D78002B4A93421FD07B682A4A93421BD07B68F8
:104D8800294A934217D07B68284A934213D07B68FC
:104D9800274A93420FD07B68264A93420BD07B6800
:104DA800254A934207D07B68244A934203D07B6804
:104DB800234A934208D1FB6823F44073FB603B68A5
:104DC800DB68FA681343FB60FB6823F080023B68EA
:104DD8005B691343FB607B68FA681A603B689A68F2
:104DE8007B68DA623B681A687B689A627B680A4A61
:104DF800934203D07B680C4A934203D13B681A69FB
:104E08007B681A637B6801225A6100BF1437BD466C
:104E18005DF8047B704700BF0000014000040040BB
:104E280000080040000C0040000401400040014020
:104E3800004401400048014000180040001C0040A8
:104E48000020004080B487B000AF786039607B688C
:104E58001B6A23F001027B681A627B681B6A7B610C
:104E68007B685B683B617B689B69FB60FB6823F040
:104E78007003FB60FB6823F00303FB603B681B685F
:104E8800FA681343FB607B6923F002037B613B688C
:104E98009B687A6913437B617B68204A934203D0FD
:104EA8007B681F4A93420CD17B6923F008037B611E
:104EB8003B68DB687A6913437B617B6923F00403F1
:104EC8007B617B68154A934203D07B68144A9342FE
:104ED80011D13B6923F480733B613B6923F4007370
:104EE8003B613B685B693A6913433B613B689B697B
:104EF8003A6913433B617B683A695A607B68FA6890
:104F08009A613B685A687B685A637B687A691A6257
:104F180000BF1C37BD465DF8047B704700000140A8
:104F28000004014080B487B000AF786039607B68C6
:104F38001B6A23F010027B681A627B681B6A7B611C
:104F48007B685B683B617B689B69FB60FB6823F45B
:104F5800E043FB60FB6823F44073FB603B681B681D
:104F68001B02FA681343FB607B6923F020037B6113
:104F78003B689B681B017A6913437B617B68224A03
:104F8800934203D07B68214A93420DD17B6923F079
:104F980080037B613B68DB681B017A6913437B6193
:104FA8007B6923F040037B617B68174A934203D0F7
:104FB8007B68164A934213D13B6923F480633B61B3
:104FC8003B6923F400633B613B685B699B003A697A
:104FD80013433B613B689B699B003A6913433B6100
:104FE8007B683A695A607B68FA689A613B685A68D4
:104FF8007B689A637B687A691A6200BF1C37BD4672
:105008005DF8047B704700BF0000014000040140C8
:1050180080B487B000AF786039607B681B6A23F47E
:1050280080727B681A627B681B6A7B617B685B683D
:105038003B617B68DB69FB60FB6823F07003FB6006
:10504800FB6823F00303FB603B681B68FA681343A3
:10505800FB607B6923F400737B613B689B681B02E0
:105068007A6913437B617B68214A934203D07B684A
:10507800204A93420DD17B6923F400637B613B682E
:10508800DB681B027A6913437B617B6923F48063C5
:105098007B617B68164A934203D07B68154A93422A
:1050A80013D13B6923F480533B613B6923F40053DC
:1050B8003B613B685B691B013A6913433B613B6891
:1050C8009B691B013A6913433B617B683A695A60E3
:1050D8007B68FA68DA613B685A687B68DA637B68E0
:1050E8007A691A6200BF1C37BD465DF8047B7047B9
:1050F800000001400004014080B487B000AF786030
:1051080039607B681B6A23F480527B681A627B686B
:105118001B6A3B617B685B687B617B68DB69FB6062
:10512800FB6823F4E043FB60FB6823F44073FB60F7
:105138003B681B681B02FA681343FB603B6923F456
:1051480000533B613B689B681B033A6913433B610F
:105158007B68124A934203D07B68114A934209D173
:105168007B6923F480437B613B685B699B017A69B7
:1051780013437B617B687A695A607B68FA68DA61F5
:105188003B685A687B681A647B683A691A6200BF90
:105198001C37BD465DF8047B704700BF0000014026
:1051A8000004014080B485B000AF786039607B6846
:1051B80093F83C30012B01D102235AE07B6801228D
:1051C80083F83C207B68022283F83D207B681B68BB
:1051D8005B68FB607B681B689B68BB60FB6823F0AF
:1051E8007003FB603B681B68FA681343FB607B68CD
:1051F8001B68FA685A607B681B68214A934222D070
:105208007B681B68B3F1804F1DD07B681B681D4A03
:10521800934218D07B681B681B4A934213D07B6863
:105228001B681A4A93420ED07B681B68184A93423F
:1052380009D07B681B68174A934204D07B681B68B7
:10524800154A93420CD1BB6823F08003BB603B68CE
:105258005B68BA681343BB607B681B68BA689A606E
:105268007B68012283F83D207B68002283F83C207C
:10527800002318461437BD465DF8047B704700BF0D
:10528800000001400004004000080040000C0040FD
:1052980000040140004001400018004080B483B081
:1052A80000AF786000BF0C37BD465DF8047B7047DF
:1052B80080B483B000AF786000BF0C37BD465DF89E
:1052C800047B704770B50D4D0D4C641BA41000266F
:1052D800A64209D10B4D0C4C00F020F8641BA41019
:1052E8000026A64205D170BD55F8043B9847013603
:1052F800EEE755F8043B98470136F2E7BC5600083C
:10530800BC560008BC560008C056000802440346B4
:10531800934200D1704703F8011BF9E7F8B500BFC5
:10532800F8BC08BC9E467047F8B500BFF8BC08BC7E
:045338009E467047D6
:10533C0061693A20696E697469616C697A61746932
:10534C006F6E206F6620696E76616C696420696E81
:10535C007075740061693A20696E697469616C6971
:10536C007A6174696F6E20776974686F7574206CDC
:10537C00696E656172697A6174696F6E2066756EAB
:10538C006374696F6E00000061693A20696E69741C
:10539C0069616C697A6174696F6E2073616D706C90
:1053AC0065732076616C7565206F7574206F66204F
:1053BC00626F756E6473000061693A20616C6D6F89
:1053CC0073742064697669646564206279207A65F7
:1053DC00726F210061693A206E756C6C20706F6978
:1053EC006E74657220696E206C696E656172697A83
:1053FC006174696F6E2066756E6374696F6E000000
:10540C00616F3A20696E697469616C697A6174695B
:10541C006F6E206F6620696E76616C696420696EB0
:10542C0070757400616F3A20696E697469616C699A
:10543C007A6174696F6E207769746820696E766121
:10544C006C696420444143206368616E6E656C0036
:10545C00616F3A20696E697469616C697A6174690B
:10546C006F6E20776974686F7574206C696E6561F6
:10547C0072697A6174696F6E2066756E6374696F98
:10548C006E000000616F3A206E756C6C20706F6955
:10549C006E74657220696E206C696E656172697AD2
:1054AC006174696F6E2066756E6374696F6E00004F
:1054BC00646F3A20696E697469616C697A617469A8
:1054CC006F6E206F6620696E76616C6964206F75F3
:1054DC007470757400000000646F3A20696E697412
:1054EC0069616C697A6174696F6E20776974682080
:1054FC00696E76616C696420737461746500000078
:10550C00646F3A20696E697469616C697A61746957
:10551C006F6E207769746820696E76616C6964209F
:10552C0070696E00646F3A20696E76616C696420F4
:10553C006F75747075742070617373656420746F0B
:10554C002061207374617469632066756E6374697D
:10555C006F6E21007574696C6974793A20756E658B
:10556C0078706563746564206572726F72206475FF
:10557C0072696E6720696E697469616C697A6174AD
:10558C00696F6E2C2070726F6772616D2073746F0F
:10559C00707065640000000064693A20696E69747B
:1055AC0069616C697A6174696F6E206F66206E6FC9
:1055BC006E2D6578697374656E7420696E70757480
:1055CC000000000064693A20696E697469616C6955
:1055DC007A6174696F6E206F662077726F6E6720C8
:1055EC00485720747970650064693A20696E697453
:1055FC0069616C697A6174696F6E206F662077726D
:10560C006F6E6720535720747970650064693A2077
:10561C00696E76616C696420696E70757420706156
:10562C007373656420746F20612073746174696393
:10563C002066756E6374696F6E21000064693A2090
:10564C00696E70757420696E20696E76616C696420
:10565C0020485720737461746500000064693A2017
:10566C00696E707574207374617465206D61636804
:10567C00696E6520696E20696E76616C6964207351
:10568C007461746500000000000000000000000060
:10569C0001020304060708090000000001020304CC
:0856AC0000061016000610169E
:0856B40044ABFF7F0100000080
:0456BC00AD01000834
:0456C0008901000854
:0C56C4000024F4001000000001000000B1
:04000005080020A926
:00000001FF
